:1026000002C8C6008F828E83E0540100000070F87B
:102610002278FFE4F6D8FD02C949900002EEF0A34B
:10262000EFF078047C007D017BFF7A4C79D97E073E
:102630007F6D1289579007717407F0A3746DF0785D
:10264000787C077D017BFF7A5479467E007F0F12EC
:10265000895778877C077D017BFF7A5479557E0006
:102660007F1C12895778A37C077D017BFF7A547900
:10267000717E007F1B12895778BE7C077D017BFF2E
:102680007A54798C7E007F1C12895778DA7C077D1A
:10269000017BFF7A5479A87E007F2212895778FC4B
:1026A0007C077D017BFF7A5479CA7E007F271289DF
:1026B0005778237C087D017BFF7A5479F17E007F77
:1026C0001112895778347C087D017BFF7A55790295
:1026D0007E007F19128957784D7C087D017BFF7A37
:1026E00055791B7E007F11128957785E7C087D0129
:1026F0007BFF7A55792C7E007F1C128957787A7C73
:10270000087D017BFF7A5579487E007F1D1289572D
:1027100078977C087D017BFF7A5579657E007F1B69
:1027200012895778B27C087D017BFF7A5579807ECB
:10273000007F1412895778C67C087D017BFF7A558B
:1027400079947E007F2512895778EB7C087D017B88
:10275000FF7A5579B97E007F1512895778007C0978
:102760007D017BFF7A5579CE7E007F1512895778DF
:10277000157C097D017BFF7A5579E37E007F141279
:10278000895778297C097D017BFF7A5579F77E008E
:102790007F24128957784D7C097D017BFF7A567919
:1027A0001B7E007F1912895778667C097D017BFFAB
:1027B0007A5679347E007F18128957787E7C097D9D
:1027C000017BFF7A56794C7E007F141289577892EC
:1027D0007C097D017BFF7A5679607E007F24128917
:1027E0005778B67C097D017BFF7A5679847E007F1D
:1027F0002312895778D97C097D017BFF7A5679A706
:102800007E007F1512895778EE7C097D017BFF7A67
:102810005679BC7E007F1D128957780B7C0A7D019A
:102820007BFF7A5679D97E007F1812895778237CEE
:102830000A7D017BFF7A5679F17E007F1912895754
:10284000783C7C0A7D017BFF7A57790A7E007F25E0
:1028500012895778617C0A7D017BFF7A57792F7E38
:10286000007F6312895778C47C0A7D017BFF7A5709
:1028700079927E007F4012895778047C0B7D017B22
:10288000FF7A5779D27E007F2A1289577B017A0717
:10289000797812EE448F2C7B017A07798712EE4407
:1028A0008F2D7B017A0779A312EE448F2E7B017A5C
:1028B00008792312EE448F2F7B017A08793412EEC7
:1028C000448F307B017A08794D12EE448F317B01C1
:1028D0007A08797A12EE448F327B017A087997125E
:1028E000EE448F337B017A0879B212EE448F347B49
:1028F000017A0879EB12EE448F357B017A09790071
:1029000012EE448F367B017A09791512EE448F3727
:102910007B017A09794D12EE448F387B017A09796F
:10292000D912EE448F397B017A0A796112EE448F15
:102930003A7B017A0A79C412EE448F3B7B017A0B11
:10294000790412EE448F3C7B017A09797E12EE44C1
:102950008F3D7B017A09799212EE448F3E7B017A9A
:102960000979B612EE448F3F7B017A0A793C12EE68
:10297000448F40900004740CF0A3741CF09000028B
:10298000E0FEA3E0FFEE6003023FC8EFB41D00408D
:1029900003023FC890299BF82828730229F20239C4
:1029A000FC023A05023B01023BCE023BE1023BEA5C
:1029B000023BF3023C1E023C9C023CD9023CE20278
:1029C0003DB8023E3E023E4E023E57023E76023E79
:1029D0009F023EA8023EBF023EC8023ED1023F0314
:1029E000023F41023F56023F90023F99023FA2023E
:1029F0003FB09000067402F0A314F0900B38E09002
:102A00000008F0852C2AE52A6032FFC3E52C9FFFE1
:102A1000E49400FE74782FF58274073EF583E0FF9E
:102A2000E52AFDE52CC39DFDE49400FC74092DF519
:102A30008274003CF583EFF0152A80CA9000387448
:102A400007F0A37403F0900B6BE064036068900BD5
:102A500039E0FCA3E0FDA3E0FEA3E0FFEC1282DF7F
:102A6000E4FBFA798078471281C990003A1287F81E
:102A7000900B3DE0FCA3E0FDA3E0FEA3E0FFEC1221
:102A800082DFE4FBFA798078471281C990003E1218
:102A900087F8900B41E0FCA3E0FDA3E0FEA3E0FF7C
:102AA000EC1282DFE4FBFA798078471281C990004A
:102AB000421287F88063900B51E0FCA3E0FDA3E095
:102AC000FEA3E0FFEC1282DFE4FBFAF97846128104
:102AD000C990003A1287F8900B55E0FCA3E0FDA3E3
:102AE000E0FEA3E0FFEC1282DFE4FBFAF978461285
:102AF00081C990003E1287F8900B59E0FCA3E0FDDD
:102B0000A3E0FEA3E0FFEC1282DFE4FBFAF97846D3
:102B10001281C99000421287F8852D2AE52A603279
:102B2000FFC3E52D9FFFE49400FE74872FF58274A8
:102B3000073EF583E0FFE52AFDE52DC39DFDE49406
:102B400000FC74462DF58274003CF583EFF0152AE5
:102B500080CA90006A7407F0A37403F0900B6BE0D6
:102B600064036068900B45E0FCA3E0FDA3E0FEA3D6
:102B7000E0FFEC1282DFE4FBFA798078471281C92A
:102B800090006C1287F8900B49E0FCA3E0FDA3E0F5
:102B9000FEA3E0FFEC1282DFE4FBFA7980784712B3
:102BA00081C99000701287F8900B4DE0FCA3E0FD06
:102BB000A3E0FEA3E0FFEC1282DFE4FBFA79807869
:102BC000471281C99000741287F88063900B5DE012
:102BD000FCA3E0FDA3E0FEA3E0FFEC1282DFE4FB38
:102BE000FAF978461281C990006C1287F8900B614F
:102BF000E0FCA3E0FDA3E0FEA3E0FFEC1282DFE433
:102C0000FBFAF978461281C99000701287F8900B90
:102C100065E0FCA3E0FDA3E0FEA3E0FFEC1282DF91
:102C2000E4FBFAF978461281C99000741287F8859E
:102C30002E2AE52A6032FFC3E52E9FFFE49400FEB2
:102C400074A32FF58274073EF583E0FFE52AFDE5C6
:102C50002EC39DFDE49400FC74782DF58274003C35
:102C6000F583EFF0152A80CAE490009CF0A304F0ED
:102C7000900B69E090009EF0900B69601C900B3106
:102C800074FFF0A3743FF0A374C9F07B017A077955
:102C9000BE12E02D752B1C801A900B3174FFF0A32F
:102CA000743FF0A374CFF07B017A0779BE12E02D58
:102CB000752B1B852B2AE52A6032FFC3E52B9FFF6E
:102CC000E49400FE74BE2FF58274073EF583E0FFA6
:102CD000E52AFDE52BC39DFDE49400FC749F2DF5D2
:102CE0008274003CF583EFF0152A80CA749F252B6F
:102CF000F582E43400F5837403F0E49000CEF0A391
:102D000004F0900B6AE09000D0F0900B6A146033EE
:102D100014604C14606514607E147003022DB3249B
:102D2000056003022DCD900B3174FFF0A3743FF0CA
:102D3000A374D4F07B017A0779DA12E02D752B1495
:102D4000022DCD900B3174FFF0A3743FF0A374DA21
:102D5000F07B017A0779DA12E02D752B17806E90DF
:102D60000B3174FFF0A3743FF0A374E3F07B017A9E
:102D70000779DA12E02D752B218052900B3174FF08
:102D8000F0A3743FF0A374F6F07B017A0779DA12AE
:102D9000E02D752B1D8036900B3174FFF0A374402D
:102DA000F0A37405F07B017A0779DA12E02D752B18
:102DB00019801A900B3174FFF0A37440F0A37410C3
:102DC000F07B017A0779DA12E02D752B22852B2A08
:102DD000E52A6032FFC3E52B9FFFE49400FE74DA1E
:102DE0002FF58274073EF583E0FFE52AFDE52BC34E
:102DF0009DFDE49400FC74D12DF58274003CF583B4
:102E0000EFF0152A80CA74D1252BF582E43400F541
:102E1000837401F0E4900100F0A304F0900B6BE0E8
:102E2000900102F0900B6B14602614603F14605800
:102E30002403706E900B3174FFF0A37440F0A37400
:102E400024F07B017A0779FC12E02D752B1B805250
:102E5000900B3174FFF0A37440F0A3742FF07B014A
:102E60007A0779FC12E02D752B168036900B3174A1
:102E7000FFF0A37440F0A37435F07B017A0779FC6E
:102E800012E02D752B1A801A900B3174FFF0A37489
:102E900040F0A3743FF07B017A0779FC12E02D75B6
:102EA0002B27852B2AE52A6032FFC3E52B9FFFE401
:102EB0009400FE74FC2FF58274073EF583E0FFE575
:102EC0002AFDE52BC39DFDE49400FC74032DF582DF
:102ED00074013CF583EFF0152A80CA7403252BF5A5
:102EE00082E43401F5837402F0900132F0A304F01F
:102EF000E4F52AE52AC39403501E746C252AF58252
:102F0000E4340BF583E0FF7434252AF582E43401C0
:102F1000F583EFF0052A80DB852F2AE52A6032FF52
:102F2000C3E52F9FFFE49400FE74232FF5827408FD
:102F30003EF583E0FFE52AFDE52FC39DFDE4940007
:102F4000FC74372DF58274013CF583EFF0152A806F
:102F5000CA9001647403F0A3F0E4F52AE52AC3944F
:102F6000035044E52A25E025E0246FF582E4340B84
:102F7000F583E0FCA3E0FDA3E0FEA3E0FF746C2575
:102F80002AF582E4340BF583E0F9F812879775F09F
:102F900002E52AA42466F582E5F03401F583EEF01B
:102FA000A3EFF0052A80B585302AE52A6032FFC3F9
:102FB000E5309FFFE49400FE74342FF58274083EE0
:102FC000F583E0FFE52AFDE530C39DFDE49400FCB8
:102FD000746C2DF58274013CF583EFF0152A80CADC
:102FE0009001967407F0A37403F0E4F52AE52AC370
:102FF00094035031E52A25E025E0247BF582E43472
:103000000BF583E0FCA3E0FDA3E0FEA3E0FF75F079
:1030100004E52AA42498F582E5F03401F5831287AB
:10302000F8052A80C885312AE52A6032FFC3E531D8
:103030009FFFE49400FE744D2FF58274083EF583E3
:10304000E0FFE52AFDE531C39DFDE49400FC74A496
:103050002DF58274013CF583EFF0152A80CAE490C7
:1030600001C8F0A304F0900B87E09001CAF0900B28
:1030700087601C900B3174FFF0A3743FF0A374C9F8
:10308000F07B017A08795E12E02D752B1C801A9076
:103090000B3174FFF0A3743FF0A374CFF07B017A7F
:1030A00008795E12E02D752B1B852B2AE52A6032EC
:1030B000FFC3E52B9FFFE49400FE745E2FF582743E
:1030C000083EF583E0FFE52AFDE52BC39DFDE49472
:1030D00000FC74CB2DF58274013CF583EFF0152ACA
:1030E00080CA74CB252BF582E43401F5837403F098
:1030F0009001FA7405F0A37402F0E4F52AE52AC3FE
:1031000094014003023188E52A25E025E02488F572
:1031100082E4340BF583E0FCA3E0FDA3E0FEA3E032
:10312000FF746C252AF582E4340BF583E0F9F8127C
:10313000879775F008E52AA424FCF582E5F03401B0
:10314000F5831287F8E52A25E025E02490F582E44E
:10315000340BF583E0FCA3E0FDA3E0FEA3E0FF74E5
:103160006C252AF582E4340BF583E0F9F812879791
:1031700075F008E52AA42400F582E5F03402F58311
:103180001287F8052A0230FD85322AE52A6032FFCF
:10319000C3E5329FFFE49400FE747A2FF582740831
:1031A0003EF583E0FFE52AFDE532C39DFDE4940092
:1031B000FC74042DF58274023CF583EFF0152A802F
:1031C000CA90022C7405F0A37402F0900B9CE0FCF2
:1031D000A3E0FDA3E0FEA3E0FF90022E1287F8908B
:1031E0000B98E0FCA3E0FDA3E0FEA3E0FF90023219
:1031F0001287F885332AE52A6032FFC3E5339FFF43
:10320000E49400FE74972FF58274083EF583E0FF86
:10321000E52AFDE533C39DFDE49400FC74362DF5ED
:103220008274023CF583EFF0152A80CA90025E7426
:1032300003F0A37401F0900BA0E0FFA3E090026004
:10324000CFF0A3EFF085342AE52A6032FFC3E534DE
:103250009FFFE49400FE74B22FF58274083EF5835C
:10326000E0FFE52AFDE534C39DFDE49400FC7462B3
:103270002DF58274023CF583EFF0152A80CAE490A4
:103280000290F0A304F0900BA6E0900292F0900B55
:10329000A6601C900B3174FFF0A3743FF0A374C9B7
:1032A000F07B017A0879C612E02D752B25801A90E3
:1032B0000B3174FFF0A3743FF0A374CFF07B017A5D
:1032C0000879C612E02D752B24852B2AE52A603259
:1032D000FFC3E52B9FFFE49400FE74C62FF58274B4
:1032E000083EF583E0FFE52AFDE52BC39DFDE49450
:1032F00000FC74932DF58274023CF583EFF0152ADF
:1033000080CA7493252BF582E43402F5837403F0AC
:103310009002C204F0A37402F0900BA2E0FFA3E0BD
:103320009002C4CFF0A3EFF0900BA4E0FFA3E090D5
:1033300002C6CFF0A3EFF085352AE52A6032FFC33D
:10334000E5359FFFE49400FE74EB2FF58274083E90
:10335000F583E0FFE52AFDE535C39DFDE49400FC1F
:1033600074C82DF58274023CF583EFF0152A80CAEB
:103370009002F47406F0A37402F0900BA7E0FCA393
:10338000E0FDA3E0FEA3E0FF9002F61287F8900BA9
:10339000ABE0FCA3E0FDA3E0FEA3E0FF9002FA1285
:1033A00087F885362AE52A6032FFC3E5369FFFE4B9
:1033B0009400FE74002FF58274093EF583E0FFE56A
:1033C0002AFDE536C39DFDE49400FC74FE2DF582D4
:1033D00074023CF583EFF0152A80CA90032674022C
:1033E000F0A314F0900BAFE0900328F085372AE5A6
:1033F0002A6032FFC3E5379FFFE49400FE74152F67
:10340000F58274093EF583E0FFE52AFDE537C39DAB
:10341000FDE49400FC74292DF58274033CF583EFE0
:10342000F0152A80CAE4900358F0A304F0900BB082
:10343000E090035AF0900BB0601C900B3174FFF0D9
:10344000A3743FF0A374C9F07B017A09792912E0D3
:103450002D752B24801A900B3174FFF0A3743FF06C
:10346000A374CFF07B017A09792912E02D752B2303
:10347000852B2AE52A6032FFC3E52B9FFFE49400E9
:10348000FE74292FF58274093EF583E0FFE52AFDDD
:10349000E52BC39DFDE49400FC745B2DF582740361
:1034A0003CF583EFF0152A80CA745B252BF582E486
:1034B0003403F5837403F090038A7401F0A3F09051
:1034C0000BB1E090038CF085382AE52A6032FFC307
:1034D000E5389FFFE49400FE744D2FF58274093E99
:1034E000F583E0FFE52AFDE538C39DFDE49400FC8B
:1034F000748D2DF58274033CF583EFF0152A80CA94
:10350000E49003BCF0A304F0900BB2E09003BEF093
:10351000900BB2601C900B3174FFF0A3743FF0A3CA
:1035200074C9F07B017A09796612E02D752B188039
:103530001A900B3174FFF0A3743FF0A374CFF07BAB
:10354000017A09796612E02D752B17852B2AE52A59
:103550006032FFC3E52B9FFFE49400FE74662FF5F5
:103560008274093EF583E0FFE52AFDE52BC39DFD4E
:10357000E49400FC74BF2DF58274033CF583EFF0F6
:10358000152A80CA74BF252BF582E43403F58374B1
:1035900003F09003EE7405F0A37401F0900BCDE0FE
:1035A000FCA3E0FDA3E0FEA3E0FF900B6CE0F9F8C4
:1035B0001287979003F01287F8853D2AE52A60323A
:1035C000FFC3E53D9FFFE49400FE747E2FF58274F7
:1035D000093EF583E0FFE52AFDE53DC39DFDE4944A
:1035E00000FC74F42DF58274033CF583EFF0152A8A
:1035F00080CA9004207405F0A37401F0900BD1E010
:10360000FCA3E0FDA3E0FEA3E0FF9004221287F8F4
:10361000853E2AE52A6032FFC3E53E9FFFE4940021
:10362000FE74922FF58274093EF583E0FFE52AFDD2
:10363000E53EC39DFDE49400FC74262DF5827404E0
:103640003CF583EFF0152A80CA9004527405F0A36C
:103650007401F0900BD5E0FCA3E0FDA3E0FEA3E035
:10366000FF9004541287F8853F2AE52A6032FFC391
:10367000E53F9FFFE49400FE74B62FF58274093E87
:10368000F583E0FFE52AFDE53FC39DFDE49400FCE2
:1036900074582DF58274043CF583EFF0152A80CA26
:1036A0009004847407F0A314F0E4F52AE52AC39487
:1036B000065031E52A25E025E024B3F582E4340BF9
:1036C000F583E0FCA3E0FDA3E0FEA3E0FF75F004BA
:1036D000E52AA42486F582E5F03404F5831287F800
:1036E000052A80C885392AE52A6032FFC3E5399F5B
:1036F000FFE49400FE74D92FF58274093EF583E04F
:10370000FFE52AFDE539C39DFDE49400FC749E2D80
:10371000F58274043CF583EFF0152A80CAE4900426
:10372000B6F0A304F0900BDDE09004B8F0900BDD50
:10373000601C900B3174FFF0A3743FF0A374C9F0C8
:103740007B017A0979EE12E02D752B1D801A900B02
:103750003174FFF0A3743FF0A374CFF07B017A09BA
:1037600079EE12E02D752B1C852B2AE52A6032FF9D
:10377000C3E52B9FFFE49400FE74EE2FF5827409DD
:103780003EF583E0FFE52AFDE52BC39DFDE49400B3
:10379000FC74B92DF58274043CF583EFF0152A8092
:1037A000CA74B9252BF582E43404F5837403F0E47C
:1037B0009004E8F0A304F0900BDCE09004EAF090B1
:1037C0000BDC601C900B3174FFF0A3743FF0A3740A
:1037D000C9F07B017A0A790B12E02D752B18801A3B
:1037E000900B3174FFF0A3743FF0A374CFF07B0112
:1037F0007A0A790B12E02D752B17852B2AE52A60A2
:1038000032FFC3E52B9FFFE49400FE740B2FF5827B
:10381000740A3EF583E0FFE52AFDE52BC39DFDE438
:103820009400FC74EB2DF58274043CF583EFF015E5
:103830002A80CA74EB252BF582E43404F5837403E3
:10384000F0E490051AF0A304F0A3F0900B3174FF9C
:10385000F0A3743FF0A374CFF07B017A0A792312AE
:10386000E02D752B18852B2AE52A6032FFC3E52B46
:103870009FFFE49400FE74232FF582740A3EF583C3
:10388000E0FFE52AFDE52BC39DFDE49400FC741DDB
:103890002DF58274053CF583EFF0152A80CA741D5E
:1038A000252BF582E43405F5837403F090054C1460
:1038B000F0A304F0900BD9E0FF744E252AF582E4C2
:1038C0003405F583EFF0900BDAE0FF744F252AF50D
:1038D00082E43405F583EFF0900BDBE0FF745025B4
:1038E0002AF582E43405F583EFF085402AE52A6065
:1038F00032FFC3E5409FFFE49400FE743C2FF58245
:10390000740A3EF583E0FFE52AFDE540C39DFDE432
:103910009400FC74512DF58274053CF583EFF0158D
:103920002A80CA853A2AE52A6032FFC3E53A9FFF1A
:10393000E49400FE74612FF582740A3EF583E0FF83
:10394000E52AFDE53AC39DFDE49400FC747E2DF567
:103950008274053CF583EFF0152A80CA853B2AE581
:103960002A6032FFC3E53B9FFFE49400FE74C42F3E
:10397000F582740A3EF583E0FFE52AFDE53BC39D31
:10398000FDE49400FC74142DF58274063CF583EF7D
:10399000F0152A80CA853C2AE52A6032FFC3E53C3F
:1039A0009FFFE49400FE74042FF582740B3EF583B0
:1039B000E0FFE52AFDE53CC39DFDE49400FC74AA0C
:1039C0002DF58274063CF583EFF0152A80CA7B0141
:1039D0007A007904900771E0A3E014FD12E9799070
:1039E0000771E0FCA3E0FD2403F58274003CF5833D
:1039F000EFF07B017A00790412D48222900DB9E0B5
:103A0000900C55F022900B6BE064036064E4FFFEC1
:103A10007D807C47900DB9E0F8A3E0F9A3E0FAA31C
:103A2000E0FB1280C012831D900C561287F8E4FF51
:103A3000FE7D807C47900DBDE0F8A3E0F9A3E0FA9D
:103A4000A3E0FB1280C012831D900C5A1287F8E489
:103A5000FFFE7D807C47900DC1E0F8A3E0F9A3E074
:103A6000FAA3E0FB1280C012831D900C5E1287F84F
:103A700022E4FFFEFD7C46900DB9E0F8A3E0F9A337
:103A8000E0FAA3E0FB1280C012831D900C6E128737
:103A9000F8E4FFFEFD7C46900DBDE0F8A3E0F9A33D
:103AA000E0FAA3E0FB1280C012831D900C72128713
:103AB000F8E4FFFEFD7C46900DC1E0F8A3E0F9A319
:103AC000E0FAA3E0FB1280C012831D900C761287EF
:103AD000F8900C6EE0FCA3E0FDA3E0FEA3E0FFEC99
:103AE0001282DF7B9A7A997999784512826640032F
:103AF000023FC8E47F337E13FDFC900C6E1287F802
:103B000022900B6BE064036064E4FFFE7D807C47E1
:103B1000900DB9E0F8A3E0F9A3E0FAA3E0FB12806E
:103B2000C012831D900C621287F8E4FFFE7D807C3A
:103B300047900DBDE0F8A3E0F9A3E0FAA3E0FB1283
:103B400080C012831D900C661287F8E4FFFE7D8012
:103B50007C47900DC1E0F8A3E0F9A3E0FAA3E0FBF5
:103B60001280C012831D900C6A1287F822E4FFFEB7
:103B7000FD7C46900DB9E0F8A3E0F9A3E0FAA3E0DC
:103B8000FB1280C012831D900C7A1287F8E4FFFEAE
:103B9000FD7C46900DBDE0F8A3E0F9A3E0FAA3E0B8
:103BA000FB1280C012831D900C7E1287F8E4FFFE8A
:103BB000FD7C46900DC1E0F8A3E0F9A3E0FAA3E094
:103BC000FB1280C012831D900C821287F822900D88
:103BD000B9E06007900C867403F022E4900C86F044
:103BE00022900DB9E0900C87F022900DB9E0900C76
:103BF00088F022E4F52AE52AC394034003023FC873
:103C000074B9252AF582E4340DF583E0FF74892523
:103C10002AF582E4340CF583EFF0052A80D8E4F528
:103C20002AE52AC394035071E52A25E024B9F582D8
:103C3000E4340DF583E0FEA3E0FFEE3395E0FDFCF8
:103C4000E52A25E025E0248CF582E4340CF5831286
:103C500087F8E52A25E025E0248CF582E4340CF58C
:103C600083C083C082E0FCA3E0FDA3E0FEA3E0FFED
:103C70007489252AF582E4340CF583E0F9F812877B
:103C8000ABD082D0831287F87489252AF582E43478
:103C90000EF583E4F0052A8088D20B22E4F52AE5AC
:103CA0002AC394034003023FC8E52A25E025E02407
:103CB000B9F582E4340DF583E0FCA3E0FDA3E0FE5A
:103CC000A3E0FFE52A25E025E02498F582E4340C02
:103CD000F5831287F8052A80C6900DB9E0900CA4F0
:103CE000F022E4F52AE52AC394024003023FC8E526
:103CF0002A75F008A424B9F582E4340DF583E0FCBC
:103D0000A3E0FDA3E0FEA3E0FFE52A25E025E024F3
:103D1000A5F582E4340CF5831287F8E52A75F008DE
:103D2000A424BDF582E4340DF583E0FCA3E0FDA3FB
:103D3000E0FEA3E0FFE52A25E025E024ADF582E4DE
:103D4000340CF5831287F8E52A25E025E024A5F553
:103D500082E4340CF583C083C082E0FCA3E0FDA3C1
:103D6000E0FEA3E0FF7489252AF582E4340CF58394
:103D7000E0F9F81287ABD082D0831287F8E52A25C4
:103D8000E025E024ADF582E4340CF583C083C082E5
:103D9000E0FCA3E0FDA3E0FEA3E0FF7489252AF583
:103DA00082E4340CF583E0F9F81287ABD082D0833B
:103DB0001287F8052A023CE5900DB9E0FCA3E0FD6E
:103DC000A3E0FEA3E0FF9007731287F8E4FFFEFD77
:103DD000FC900773E0F8A3E0F9A3E0FAA3E0FBD3BB
:103DE00012875D5014900773E0FCA3E0FDA3E0FE92
:103DF000A3E0FF900CB91287F8900DBDE0FCA3E0A2
:103E0000FDA3E0FEA3E0FF9007731287F8E4FFFE36
:103E1000FDFC900773E0F8A3E0F9A3E0FAA3E0FB50
:103E2000C312875D5003023FC8900773E0FCA3E014
:103E3000FDA3E0FEA3E0FF900CB51287F822900DE1
:103E4000B9E0FFA3E0900CBDCFF0A3EFF022900DFE
:103E5000B9E0900CC3F022900DB9E0FFA3E0900C04
:103E6000BFCFF0A3EFF0900DBBE0FFA3E0900CC13B
:103E7000CFF0A3EFF022900DB9E0FCA3E0FDA3E0AA
:103E8000FEA3E0FF900CC41287F8900DBDE0FCA3E8
:103E9000E0FDA3E0FEA3E0FF900CC81287F822909B
:103EA0000DB9E0900CCCF022900DB9E0900777F0BE
:103EB0006007900CCD7401F022E4900CCDF02290BC
:103EC0000DB9E0900CCEF022900DB9E0900CCFF03F
:103ED00022900DB9E0FCA3E0FDA3E0FEA3E0FF907B
:103EE0000CEA1287F8900CEAE0FCA3E0FDA3E0FEE8
:103EF000A3E0FF900C89E0F9F81287AB900CEA126E
:103F000087F822900DB9E0FCA3E0FDA3E0FEA3E05A
:103F1000FF900CEE1287F8E47F0AFEFDFC900CEE99
:103F2000E0F8A3E0F9A3E0FAA3E0FBC312875D4049
:103F300003023FC8E47F0AFEFDFC900CEE1287F8F6
:103F400022900DB9E0FCA3E0FDA3E0FEA3E0FF900A
:103F50000CF21287F822E4F52AE52AC39406506889
:103F6000E52A25E025E024B9F582E4340DF583E067
:103F7000FCA3E0FDA3E0FEA3E0FFE52A25E025E0A9
:103F800024D0F582E4340CF5831287F8052A80C921
:103F9000900DB9E0900CFAF022900DB9E0900CF978
:103FA000F022900DB9E0900777F0601C12D7302214
:103FB000900DB9E0900CF6F0900DBAE0900CF7F08F
:103FC000900DBBE0900CF8F02220594553000020E2
:103FD0004E4F00002055736200002048616E646CF3
:103FE00065000020454D472070726F706F727469D4
:103FF0006F6E616C000020454D4720696E746567E7
:1040000072616C000020454D472046434653000036
:1040100020454D47204643465320416476616E63F8
:104020006564000020506F736974696F6E00002032
:1040300050574D00002043757272656E7400002069
:10404000506F736974696F6E20616E64204375727E
:1040500072656E740000000D0A004669726D77612A
:1040600072652076657273696F6E3A200053482D31
:1040700050524F2076362E312E382043656E7472A2
:104080006F205069616767696F20523230323300A8
:104090002E0D0A0D0A0044455649434520494E4617
:1040A0004F0D0A0049443A2025640D0A0050574D2F
:1040B0002072657363616C696E67206163746976F1
:1040C0006174696F6E3A20005945530A004E4F0AD9
:1040D0000050574D204C696D69743A2025640D0AD3
:1040E000004D4F544F5220494E464F0D0A004D6F20
:1040F000746F72207265666572656E636500202D4F
:104100002043757272656E74733A2000202D205022
:10411000776D3A2000202D20506F736974696F6E9F
:104120003A2000256420004D6F746F7220656E6127
:10413000626C65643A20005945530D0A004E4F0DDC
:104140000A000D0A4D4541535552454D454E5453B5
:1041500020494E464F0D0A0053656E736F722076EC
:10416000616C75653A0D0A002564202D3E2025649A
:10417000004261747465727920566F6C7461676572
:1041800020286D56293A20256C640046756C6C20F9
:1041900063686172676520706F7765722074656E01
:1041A00073696F6E20286D56293A20256C64004390
:1041B000757272656E7420286D41293A20256C64F1
:1041C000000D0A44455649434520504152414D4552
:1041D000544552530D0A0050494420436F6E747287
:1041E0006F6C6C65723A0D0A0050202D3E202566DA
:1041F00020200049202D3E20256620200044202D2F
:104200003E2025660D0A0043757272656E7420505B
:10421000494420436F6E74726F6C6C65723A0D0A7C
:10422000005374617274757020616374697661748F
:10423000696F6E3A205945530D0A005374617274C8
:1042400075702061637469766174696F6E3A204E8F
:104250004F0D0A00496E707574206D6F64653A20C9
:104260005553420D0A00496E707574206D6F646578
:104270003A2048616E646C650D0A00496E70757471
:10428000206D6F64653A20454D472070726F706FE6
:104290007274696F6E616C0D0A00496E70757420DE
:1042A0006D6F64653A20454D4720696E746567728D
:1042B000616C0D0A00496E707574206D6F64653A0B
:1042C00020454D4720464346530D0A00496E707500
:1042D00074206D6F64653A20454D47204643465330
:1042E000204144560D0A00436F6E74726F6C206D4E
:1042F0006F64653A20506F736974696F6E0D0A00C0
:10430000436F6E74726F6C206D6F64653A20505706
:104310004D0D0A00436F6E74726F6C206D6F646593
:104320003A2043757272656E740D0A00436F6E74A5
:10433000726F6C206D6F64653A20506F7369746999
:104340006F6E20616E642043757272656E740D0A23
:10435000004162736F6C75746520656E636F646590
:104360007220706F736974696F6E3A205945530DEE
:104370000A004162736F6C75746520656E636F64CB
:10438000657220706F736974696F6E3A204E4F0DBD
:104390000A004D6F746F722D48616E646C65205217
:1043A0006174696F3A2025640D0A0053656E736F5E
:1043B00072207265736F6C7574696F6E3A0D0A00C6
:1043C0004D6561737572656D656E74204F666673B9
:1043D00065743A0D0A002564202D3E20256C64008A
:1043E0004D6561737572656D656E74204D756C7485
:1043F00069706C6965723A0D0A002564202D3E20B3
:1044000025660043757272656E74206C6F6F6B75F4
:1044100070207461626C653A0D0A00705B305D203B
:104420002D20705B325D3A2025662C2025662C20DD
:1044300025660A00705B335D202D20705B355D3A88
:104440002025662C2025662C2025660A00506F73D7
:104450006974696F6E206C696D6974206163746939
:1044600076653A20256400506F736974696F6E2019
:104470006C696D6974206D6F746F722025643A20C9
:10448000696E66202D3E20256C64202000737570B7
:10449000202D3E20256C640D0A004D617820737438
:1044A000657020706F7320616E64206E65673A20BE
:1044B00025642025640043757272656E74206C69F2
:1044C0006D69743A20256400454D47207468726513
:1044D00073686F6C6473205B30202D203130323470
:1044E0005D3A2025752C20257500454D47206D61CE
:1044F000782076616C756573205B30202D20343018
:1045000039365D3A20256C752C20256C7500436189
:104510006C6962726174696F6E20656E61626C6550
:10452000643A205945530D0A0043616C6962726117
:1045300074696F6E20656E61626C65643A204E4FDF
:104540000D0A00454D47206D6178207370656564E4
:104550003A20256400526573742074696D65206487
:10456000656C617920286D73293A202564005265B5
:1045700073742076656C6F6369747920636C6F73F4
:1045800075726520287469636B732F736563293AAC
:10459000202564005265737420706F736974696FAD
:1045A0006E3A2025640064656275673A20256C6464
:1045B000000D0A5553414745205354415449535423
:1045C0004943530D0A0044617465206F66206D6194
:1045D000696E74656E616E63653A2025642F25648B
:1045E0002F323025640D0A00506F736974696F6E45
:1045F0007320686973746F6772616D2028746963D2
:104600006B73293A0D0A0042696E202564205B25F0
:10461000642D25645D3A20256C750D0A0043757282
:1046200072656E7420686973746F6772616D20289B
:104630006D41293A0D0A005468726573686F6C64A5
:10464000202564205B25642D25645D3A20256C754A
:104650000D0A00454D472061637469766174696F86
:104660006E7320636F756E7465723A20256C752CBD
:1046700020256C75005265737420706F73697469BE
:104680006F6E206F6363757272656E6365733A2037
:10469000256C7500416E676C6520746F74616C20C9
:1046A000646973706C6163656D656E7420287469EC
:1046B000636B73293A20256C7500546F74616C200C
:1046C000706F776572206F6E2074696D6520287336
:1046D0006563293A20256C7500546F74616C2072F3
:1046E00065737420706F736974696F6E2074696D7F
:1046F000652028736563293A20256C750000000049
:1047000000000000000000000000000000000000A9
:104710000000000000000000000000000000000099
:104720000000000000000000000000000000000089
:104730000000000000000000000000000000000079
:1054400000000000000031202D204465766963656E
:105450002049443A0032202D20506F736974696FDF
:105460006E20504944205B502C20492C20445D3A4A
:105470000033202D2043757272656E7420504944AC
:10548000205B502C20492C20445D3A0034202D20F4
:1054900053746172747570204163746976617469C4
:1054A0006F6E3A000000000035202D20496E7075A7
:1054B00074206D6F64653A00000000000000000079
:1054C0000000000000000000000036202D20436F87
:1054D0006E74726F6C206D6F64653A00000000009E
:1054E00000000000000000000000000000000000BC
:1054F0000037202D205265736F6C7574696F6E7361
:105500003A0038202D204D6561737572656D656EAA
:1055100074204F6666736574733A0039202D204DF0
:10552000756C7469706C696572733A003130202D46
:1055300020506F732E206C696D69742061637469EB
:1055400076653A00000000003131202D20506F7345
:105550002E206C696D697473205B696E662C2073F4
:1055600075705D3A003132202D204D6178207374C2
:10557000657073205B6E65672C20706F735D3A00F9
:105580003133202D2043757272656E74206C696D05
:1055900069743A003134202D20454D472063616CF9
:1055A0006962726174696F6E206F6E2073746172CC
:1055B0007475703A00000000003135202D20454DF3
:1055C00047207468726573686F6C64733A00313693
:1055D000202D20454D47206D61782076616C7565E2
:1055E000733A003137202D20454D47206D617820DA
:1055F00073706565643A003138202D204162736F05
:105600006C75746520656E636F64657220706F736E
:105610006974696F6E3A00000000003139202D2056
:105620004D6F746F722068616E646C652072617476
:10563000696F3A003230202D2050574D207265732B
:1056400063616C696E673A00000000003231202D02
:10565000205265737420706F736974696F6E3A00BD
:105660003232202D205265737420706F7369746913
:105670006F6E2074696D652064656C617920286D9A
:1056800073293A003233202D2052657374207665D9
:105690006C20636C6F7375726520287469636B731B
:1056A0002F736563293A003234202D2043757272BE
:1056B000656E74206C6F6F6B75703A003235202DFB
:1056C000205265737420706F736974696F6E206601
:1056D0006C61673A00000000003236202D20454DF5
:1056E0004720696E76657273696F6E3A000000003C
:1056F000003237202D20526573657420636F756EFC
:10570000746572733A00000000003238202D204486
:10571000617465206F66206D61696E74656E616E7F
:105720006365205B44442F4D4D2F59595D3A00303D
:10573000202D3E205573620A31202D3E2048616E97
:10574000646C650A32202D3E20454D472070726FF3
:10575000706F7274696F6E616C0A33202D3E204544
:105760004D4720496E74656772616C0A34202D3E86
:1057700020454D4720464346530A35202D3E2045BF
:105780004D47204643465320416476616E6365640D
:105790000A0030202D3E20506F736974696F6E0AC5
:1057A00031202D3E2050574D0A32202D3E2043758A
:1057B0007272656E740A33202D3E20506F736974C7
:1057C000696F6E20616E642043757272656E740A33
:1057D000000030202D3E2044656163746976617459
:1057E00065205B4E4F5D0A31202D3E204163746978
:1057F00076617465205B5945535D0A009005E0EBC6
:10580000F0A3EAF0A3E9F0900B38E064FA70030229
:105810006E3C9005E0E0FBA3E0FAA3E0F8AC02AD3B
:10582000037BFF7A407956128A35900B3174FFF072
:10583000A37440F0A37457F09005E0E0FBA3E0FAF6
:10584000A3E0F912E02D900B3174FFF0A37440F047
:10585000A3745AF09005E0E0FBA3E0FAA3E0F9128C
:10586000E02D900B3174FFF0A37440F0A3746DF041
:105870009005E0E0FBA3E0FAA3E0F912E02D900B25
:105880003174FFF0A37440F0A37490F09005E0E051
:10589000FBA3E0FAA3E0F912E02D900B3174FFF0C6
:1058A000A37440F0A37496F09005E0E0FBA3E0FA47
:1058B000A3E0F912E02D90064E74FFF0A37440F0BF
:1058C000A374A4F0900B38E0FF900651E4F0A3EF2E
:1058D000F07B017A0579E512A4E7900B317401F0B1
:1058E000A37405F0A374E5F09005E0E0FBA3E0FAF3
:1058F000A3E0F912E02D900B3174FFF0A37440F097
:10590000A374ADF09005E0E0FBA3E0FAA3E0F91288
:10591000E02D900BB2E0B4011E900B3174FFF0A3A8
:105920007440F0A374C8F09005E0E0FBA3E0FAA394
:10593000E0F912E02D801C900B3174FFF0A374404D
:10594000F0A374CDF09005E0E0FBA3E0FAA3E0F94A
:1059500012E02D90064E74FFF0A37440F0A374D1B2
:10596000F0900EADE0FF900651E4F0A3EFF07B0164
:105970007A0579E512A4E7900B317401F0A3740560
:10598000F0A374E5F09005E0E0FBA3E0FAA3E0F9F2
:1059900012E02D900B3174FFF0A37440F0A3745704
:1059A000F09005E0E0FBA3E0FAA3E0F912E02D900F
:1059B0000B3174FFF0A37440F0A374E1F09005E0A4
:1059C000E0FBA3E0FAA3E0F912E02D900B3174FFA5
:1059D000F0A37440F0A374EEF09005E0E0FBA3E0C8
:1059E000FAA3E0F912E02D900C88E0B4021E900BAF
:1059F0003174FFF0A37440F0A374FEF09005E0E072
:105A0000FBA3E0FAA3E0F912E02D8041900C88E0BE
:105A1000B4011E900B3174FFF0A37441F0A3740C19
:105A2000F09005E0E0FBA3E0FAA3E0F912E02D809E
:105A30001C900B3174FFF0A37441F0A37415F09027
:105A400005E0E0FBA3E0FAA3E0F912E02DE4900505
:105A5000E3F0A3F0C39005E4E094029005E3E06472
:105A60008094804003025BB8900C88E06402705F11
:105A700090064E74FFF0A37441F0A37423F09005D8
:105A8000E3E0FEA3E07802C333CE33CED8F9243F5F
:105A9000F582740C3EF583E0A3E0A3E0FFA3E09061
:105AA0000651CFF0A3EFF07B017A0579E512A4E768
:105AB000900B317401F0A37405F0A374E5F0900528
:105AC000E0E0FBA3E0FAA3E0F912E02D025BA7906F
:105AD0000C88E06401705E90064E74FFF0A3744180
:105AE000F0A37423F09005E3E0FEA3E07802C33353
:105AF000CE33CED8F92447F582740C3EF583E0A36B
:105B0000E0A3E0FFA3E0900651CFF0A3EFF07B010C
:105B10007A0579E512A4E7900B317401F0A37405BE
:105B2000F0A374E5F09005E0E0FBA3E0FAA3E0F950
:105B300012E02D807290064E74FFF0A37441F0A322
:105B40007423F09005E3E0FAA3E0FBAE027802C311
:105B500033CE33CED8F92437F582740C3EF583E08A
:105B6000FCA3E0FDA3E0FEA3E0FF746C2BF58274C0
:105B70000B3AF583E0F9F8128797900651EEF0A3FF
:105B8000EFF07B017A0579E512A4E7900B317401FF
:105B9000F0A37405F0A374E5F09005E0E0FBA3E04A
:105BA000FAA3E0F912E02D9005E4E004F07006900D
:105BB00005E3E004F0025A54900B3174FFF0A37433
:105BC00040F0A37457F09005E0E0FBA3E0FAA3E0F7
:105BD000F912E02D900B3174FFF0A37440F0A37420
:105BE00057F09005E0E0FBA3E0FAA3E0F912E02D06
:105BF00090064E74FFF0A37441F0A37427F07B016C
:105C00007A0579E512A4E7900C4FE05403601990EF
:105C10000B3174FFF0A37441F0A37437F07B017A69
:105C20000579E512E02D8017900B3174FFF0A37415
:105C300041F0A3743DF07B017A0579E512E02D90E7
:105C40000B317401F0A37405F0A374E5F09005E046
:105C5000E0FBA3E0FAA3E0F912E02D900B3174FF12
:105C6000F0A37441F0A37442F09005E0E0FBA3E0E0
:105C7000FAA3E0F912E02D900B3174FFF0A3744108
:105C8000F0A37458F09005E0E0FBA3E0FAA3E0F97C
:105C900012E02DE49005E3F0A3F0C39005E4E09456
:105CA000039005E3E0648094804003025D60900609
:105CB0004E74FFF0A37441F0A37468F09005E3E024
:105CC000FCA3E0FD2401FEE43C900651F0A3CEF0DD
:105CD000EDAE047802C333CE33CED8F92475F58205
:105CE000740E3EF583E0FCA3E0FDA3E0FEA3E0FF1D
:105CF0009005E3E0FAA3E0246CF582740B3AF58397
:105D0000E0F9F8128797900653EEF0A3EFF07B01CD
:105D10007A0579E512A4E7900B317401F0A37405BC
:105D2000F0A374E5F09005E0E0FBA3E0FAA3E0F94E
:105D300012E02D900B3174FFF0A37440F0A3745760
:105D4000F09005E0E0FBA3E0FAA3E0F912E02D906B
:105D500005E4E004F070069005E3E004F0025C9ACC
:105D600090064E74FFF0A37441F0A37471F0900D8F
:105D700095E0FCA3E0FDA3E0FEA3E0FF9006511236
:105D800087F87B017A0579E512A4E7900B3174015D
:105D9000F0A37405F0A374E5F09005E0E0FBA3E048
:105DA000FAA3E0F912E02D900B3174FFF0A37440D8
:105DB000F0A37457F09005E0E0FBA3E0FAA3E0F94C
:105DC00012E02D90064E74FFF0A37441F0A3748B83
:105DD000F0900E5CE0FCA3E0FDA3E0FEA3E0FF90EA
:105DE00006511287F87B017A0579E512A4E7900B3A
:105DF000317401F0A37405F0A374E5F09005E0E0C0
:105E0000FBA3E0FAA3E0F912E02D900B3174FFF050
:105E1000A37440F0A37457F09005E0E0FBA3E0FA10
:105E2000A3E0F912E02D90064E74FFF0A37441F048
:105E3000A374AFF0900E81E0FCA3E0FDA3E0FEA30D
:105E4000E0FF9006511287F87B017A0579E512A4EC
:105E5000E7900B317401F0A37405F0A374E5F090A2
:105E600005E0E0FBA3E0FAA3E0F912E02D900B318E
:105E700074FFF0A37440F0A37457F09005E0E0FBCA
:105E8000A3E0FAA3E0F912E02D900B3174FFF0A328
:105E90007441F0A374C1F09005E0E0FBA3E0FAA325
:105EA000E0F912E02D900B3174FFF0A37441F0A3E0
:105EB00074D7F09005E0E0FBA3E0FAA3E0F912E06C
:105EC0002D900B6BE064037003025FCE90064E745E
:105ED000FFF0A37441F0A374E9F0900B39E0FCA348
:105EE000E0FDA3E0FEA3E0FFEC1282DFE4FBFA7921
:105EF0008078471281C99006511287F87B017A0594
:105F000079E512A4E7900B317401F0A37405F0A3B6
:105F100074E5F09005E0E0FBA3E0FAA3E0F912E0FD
:105F20002D90064E74FFF0A37441F0A374F3F0902B
:105F30000B3DE0FCA3E0FDA3E0FEA3E0FFEC12823A
:105F4000DFE4FBFA798078471281C9900651128705
:105F5000F87B017A0579E512A4E7900B317401F022
:105F6000A37405F0A374E5F09005E0E0FBA3E0FA6C
:105F7000A3E0F912E02D90064E74FFF0A37441F0F7
:105F8000A374FDF0900B41E0FCA3E0FDA3E0FEA3B1
:105F9000E0FFEC1282DFE4FBFA798078471281C9D6
:105FA0009006511287F87B017A0579E512A4E790F3
:105FB0000B317401F0A37405F0A374E5F09005E0D3
:105FC000E0FBA3E0FAA3E0F912E02D0260CA90061C
:105FD0004E74FFF0A37441F0A374E9F0900B51E00C
:105FE000FCA3E0FDA3E0FEA3E0FFEC1282DFE4FBF4
:105FF000FAF978461281C99006511287F87B017A26
:106000000579E512A4E7900B317401F0A37405F053
:10601000A374E5F09005E0E0FBA3E0FAA3E0F91239
:10602000E02D90064E74FFF0A37441F0A374F3F0DA
:10603000900B55E0FCA3E0FDA3E0FEA3E0FFEC1213
:1060400082DFE4FBFAF978461281C9900651128783
:10605000F87B017A0579E512A4E7900B317401F021
:10606000A37405F0A374E5F09005E0E0FBA3E0FA6B
:10607000A3E0F912E02D90064E74FFF0A37441F0F6
:10608000A374FDF0900B59E0FCA3E0FDA3E0FEA398
:10609000E0FFEC1282DFE4FBFAF978461281C99046
:1060A00006511287F87B017A0579E512A4E7900B77
:1060B000317401F0A37405F0A374E5F09005E0E0FD
:1060C000FBA3E0FAA3E0F912E02D900B3174FFF08E
:1060D000A37442F0A37407F09005E0E0FBA3E0FA9C
:1060E000A3E0F912E02D900B6BE0640370030261F2
:1060F000F390064E74FFF0A37441F0A374E9F0909E
:106100000B45E0FCA3E0FDA3E0FEA3E0FFEC128260
:10611000DFE4FBFA798078471281C9900651128733
:10612000F87B017A0579E512A4E7900B317401F050
:10613000A37405F0A374E5F09005E0E0FBA3E0FA9A
:10614000A3E0F912E02D90064E74FFF0A37441F025
:10615000A374F3F0900B49E0FCA3E0FDA3E0FEA3E1
:10616000E0FFEC1282DFE4FBFA798078471281C904
:106170009006511287F87B017A0579E512A4E79021
:106180000B317401F0A37405F0A374E5F09005E001
:10619000E0FBA3E0FAA3E0F912E02D90064E74FFB5
:1061A000F0A37441F0A374FDF0900B4DE0FCA3E06C
:1061B000FDA3E0FEA3E0FFEC1282DFE4FBFA7980AE
:1061C00078471281C99006511287F87B017A0579C8
:1061D000E512A4E7900B317401F0A37405F0A374E9
:1061E000E5F09005E0E0FBA3E0FAA3E0F912E02D72
:1061F0000262EF90064E74FFF0A37441F0A374E9BD
:10620000F0900B5DE0FCA3E0FDA3E0FEA3E0FFEC5B
:106210001282DFE4FBFAF978461281C99006511226
:1062200087F87B017A0579E512A4E7900B317401B8
:10623000F0A37405F0A374E5F09005E0E0FBA3E0A3
:10624000FAA3E0F912E02D90064E74FFF0A374411A
:10625000F0A374F3F0900B61E0FCA3E0FDA3E0FE7B
:10626000A3E0FFEC1282DFE4FBFAF978461281C961
:106270009006511287F87B017A0579E512A4E79020
:106280000B317401F0A37405F0A374E5F09005E000
:10629000E0FBA3E0FAA3E0F912E02D90064E74FFB4
:1062A000F0A37441F0A374FDF0900B65E0FCA3E053
:1062B000FDA3E0FEA3E0FFEC1282DFE4FBFAF97835
:1062C000461281C99006511287F87B017A0579E55B
:1062D00012A4E7900B317401F0A37405F0A374E5E8
:1062E000F09005E0E0FBA3E0FAA3E0F912E02D90C6
:1062F0000B3174FFF0A37440F0A37457F09005E0E5
:10630000E0FBA3E0FAA3E0F912E02D900B69E0B402
:10631000031E900B3174FFF0A37442F0A37421F0BC
:106320009005E0E0FBA3E0FAA3E0F912E02D801C69
:10633000900B3174FFF0A37442F0A3743BF090050E
:10634000E0E0FBA3E0FAA3E0F912E02D900B6AE095
:1063500014603814605314606E1470030263E51403
:1063600070030264032405600302641F900B317400
:10637000FFF0A37442F0A37454F09005E0E0FBA397
:10638000E0FAA3E0F912E02D02641F900B3174FFD4
:10639000F0A37442F0A37466F09005E0E0FBA3E084
:1063A000FAA3E0F912E02D8076900B3174FFF0A390
:1063B0007442F0A3747BF09005E0E0FBA3E0FAA345
:1063C000E0F912E02D8058900B3174FFF0A3744275
:1063D000F0A3749AF09005E0E0FBA3E0FAA3E0F9E3
:1063E00012E02D803A900B3174FFF0A37442F0A3B9
:1063F00074B5F09005E0E0FBA3E0FAA3E0F912E049
:106400002D801C900B3174FFF0A37442F0A374CC68
:10641000F09005E0E0FBA3E0FAA3E0F912E02D9094
:106420000B6BE014602814604314605E24037076E4
:10643000900B3174FFF0A37442F0A374E7F0900561
:10644000E0E0FBA3E0FAA3E0F912E02D8058900B06
:106450003174FFF0A37443F0A37400F09005E0E002
:10646000FBA3E0FAA3E0F912E02D803A900B31741F
:10647000FFF0A37443F0A37414F09005E0E0FBA3D5
:10648000E0FAA3E0F912E02D801C900B3174FFF0CC
:10649000A37443F0A3742CF09005E0E0FBA3E0FAB2
:1064A000A3E0F912E02D900BB0E0601E900B317468
:1064B000FFF0A37443F0A37451F09005E0E0FBA358
:1064C000E0FAA3E0F912E02D801C900B3174FFF08C
:1064D000A37443F0A37472F09005E0E0FBA3E0FA2C
:1064E000A3E0F912E02D90064E74FFF0A37443F080
:1064F000A37492F0900BB1E0FE3395E0900651F05A
:10650000A3CEF07B017A0579E512A4E7900B3174F4
:1065100001F0A37405F0A374E5F09005E0E0FBA39F
:10652000E0FAA3E0F912E02D900B3174FFF0A374B0
:1065300043F0A374ABF09005E0E0FBA3E0FAA3E026
:10654000F912E02DE49005E3F0A3F0C39005E4E038
:1065500094039005E3E06480948040030265E79033
:10656000064E74FFF0A37441F0A37468F09005E345
:10657000E0FCA3E0FD2401FEE43C900651F0A3CE34
:10658000F0746C2DF582740B3CF583E0FF9006539C
:10659000E4F0A3EFF07B017A0579E512A4E7900B14
:1065A000317401F0A37405F0A374E5F09005E0E008
:1065B000FBA3E0FAA3E0F912E02D900B3174FFF099
:1065C000A37440F0A37457F09005E0E0FBA3E0FA59
:1065D000A3E0F912E02D9005E4E004F070069005C8
:1065E000E3E004F002654B900B3174FFF0A37443B9
:1065F000F0A374C0F09005E0E0FBA3E0FAA3E0F99B
:1066000012E02DE49005E3F0A3F0C39005E4E094DC
:10661000039005E3E06480948040030266CE900618
:106620004E74FFF0A37443F0A374D6F09005E3E03A
:10663000FCA3E0FD2401FEE43C900651F0A3CEF063
:10664000EDAE047802C333CE33CED8F9246FF58291
:10665000740B3EF583E0FCA3E0FDA3E0FEA3E0FFA6
:106660009005E3E0FAA3E0246CF582740B3AF5831D
:10667000E0F9F81287979006531287F87B017A05A4
:1066800079E512A4E7900B317401F0A37405F0A32F
:1066900074E5F09005E0E0FBA3E0FAA3E0F912E076
:1066A0002D900B3174FFF0A37440F0A37457F09059
:1066B00005E0E0FBA3E0FAA3E0F912E02D9005E489
:1066C000E004F070069005E3E004F002660A900B27
:1066D0003174FFF0A37443F0A374E0F09005E0E0A0
:1066E000FBA3E0FAA3E0F912E02DE49005E3F0A3A8
:1066F000F0C39005E4E094039005E3E064809480A7
:10670000400302679F90064E74FFF0A37443F0A30A
:1067100074FAF09005E3E0FCA3E0FD2401FEE43C04
:10672000900651F0A3CEF0EDAE047802C333CE3321
:10673000CED8F9247BF582740B3EF583E0FCA3E010
:10674000FDA3E0FEA3E0FF9006531287F87B017AD9
:106750000579E512A4E7900B317401F0A37405F0FC
:10676000A374E5F09005E0E0FBA3E0FAA3E0F912E2
:10677000E02D900B3174FFF0A37440F0A37457F038
:106780009005E0E0FBA3E0FAA3E0F912E02D90050C
:10679000E4E004F070069005E3E004F00266F19096
:1067A0000B3174FFF0A37444F0A37403F09005E080
:1067B000E0FBA3E0FAA3E0F912E02D90064E74FF8F
:1067C000F0A37444F0A3741BF0900BB3E0FCA3E0BF
:1067D000FDA3E0FEA3E0FF9006511287F8900BB7EF
:1067E000E0FCA3E0FDA3E0FEA3E0FF9006551287C6
:1067F000F8900BBBE0FCA3E0FDA3E0FEA3E0FF905C
:1068000006591287F87B017A0579E512A4E7900B07
:10681000317401F0A37405F0A374E5F09005E0E095
:10682000FBA3E0FAA3E0F912E02D90064E74FFF00E
:10683000A37444F0A37434F0900BBFE0FCA3E0FD1C
:10684000A3E0FEA3E0FF9006511287F8900BC3E08F
:10685000FCA3E0FDA3E0FEA3E0FF9006551287F83D
:10686000900BC7E0FCA3E0FDA3E0FEA3E0FF9006D1
:10687000591287F87B017A0579E512A4E7900B316C
:106880007401F0A37405F0A374E5F09005E0E0FB5B
:10689000A3E0FAA3E0F912E02D900B3174FFF0A30E
:1068A0007440F0A37457F09005E0E0FBA3E0FAA376
:1068B000E0F912E02D90064E74FFF0A37444F0A3AB
:1068C000744DF0900CA4E0FF900651E4F0A3EFF0BB
:1068D0007B017A0579E512A4E7900B317401F0A3EE
:1068E0007405F0A374E5F09005E0E0FBA3E0FAA3E3
:1068F000E0F912E02D900B3174FFF0A37440F0A387
:106900007457F09005E0E0FBA3E0FAA3E0F912E091
:106910002DE49005E3F0A3F0C39005E4E09401902A
:1069200005E3E0648094804003026A3090064E7470
:10693000FFF0A37444F0A37467F09005E3E0FCA3B8
:10694000E0FD2401FEE43C900651F0A3CEF0EDAE54
:10695000047802C333CE33CED8F924A5F582740C63
:106960003EF583E0FCA3E0FDA3E0FEA3E0FF90057D
:10697000E3E0FAA3E02489F582740C3AF583E0F9A8
:10698000F81287979006531287F87B017A0579E50C
:1069900012A4E7900B317401F0A37405F0A374E521
:1069A000F09005E0E0FBA3E0FAA3E0F912E02D90FF
:1069B000064E74FFF0A37444F0A3748DF09005E3C9
:1069C000E0FAA3E0FBAE027802C333CE33CED8F9AF
:1069D00024ADF582740C3EF583E0FCA3E0FDA3E05A
:1069E000FEA3E0FF74892BF582740C3AF583E0F97D
:1069F000F81287979006511287F87B017A0579E59E
:106A000012A4E7900B317401F0A37405F0A374E5B0
:106A1000F09005E0E0FBA3E0FAA3E0F912E02D908E
:106A200005E4E004F070069005E3E004F002691864
:106A300090064E74FFF0A37444F0A3749AF0900C87
:106A4000B5E0A3E0A3E0FFA3E0900651CFF0A3EFF1
:106A5000F0900CB9E0A3E0A3E0FFA3E0900653CFD1
:106A6000F0A3EFF07B017A0579E512A4E7900B31F2
:106A70007401F0A37405F0A374E5F09005E0E0FB69
:106A8000A3E0FAA3E0F912E02D900B3174FFF0A31C
:106A90007440F0A37457F09005E0E0FBA3E0FAA384
:106AA000E0F912E02D90064E74FFF0A37444F0A3B9
:106AB00074B6F0900CBDE0FFA3E0900651CFF0A3B8
:106AC000EFF07B017A0579E512A4E7900B317401B0
:106AD000F0A37405F0A374E5F09005E0E0FBA3E0FB
:106AE000FAA3E0F912E02D900B3174FFF0A374408B
:106AF000F0A37457F09005E0E0FBA3E0FAA3E0F9FF
:106B000012E02D90064E74FFF0A37444F0A374C8F5
:106B1000F0900CBFE0FFA3E0900651CFF0A3EFF0A0
:106B2000900CC1E0FFA3E0900653CFF0A3EFF07B01
:106B3000017A0579E512A4E7900B317401F0A37492
:106B400005F0A374E5F09005E0E0FBA3E0FAA3E014
:106B5000F912E02D900B3174FFF0A37440F0A37490
:106B600057F09005E0E0FBA3E0FAA3E0F912E02D76
:106B700090064E74FFF0A37444F0A374EAF0900CF6
:106B8000C4E0FCA3E0FDA3E0FEA3E0FF90065112E9
:106B900087F8900CC8E0FCA3E0FDA3E0FEA3E0FFB3
:106BA0009006551287F87B017A0579E512A4E790E3
:106BB0000B317401F0A37405F0A374E5F09005E0C7
:106BC000E0FBA3E0FAA3E0F912E02D900B3174FF93
:106BD000F0A37440F0A37457F09005E0E0FBA3E04D
:106BE000FAA3E0F912E02D900CC3E0601E900B3187
:106BF00074FFF0A37445F0A3740EF09005E0E0FB81
:106C0000A3E0FAA3E0F912E02D801C900B3174FF91
:106C1000F0A37445F0A37429F09005E0E0FBA3E035
:106C2000FAA3E0F912E02D90064E74FFF0A374452C
:106C3000F0A37443F0900CCCE0FF900651E4F0A375
:106C4000EFF07B017A0579E512A4E7900B3174012E
:106C5000F0A37405F0A374E5F09005E0E0FBA3E079
:106C6000FAA3E0F912E02D900B3174FFF0A3744009
:106C7000F0A37457F09005E0E0FBA3E0FAA3E0F97D
:106C800012E02D900CFAE064016003026DC09006E2
:106C90004E74FFF0A37445F0A37455F0900CEEE031
:106CA000A3E0A3E0FFA3E0900651CFF0A3EFF07BB9
:106CB000017A0579E512A4E7900B317401F0A37411
:106CC00005F0A374E5F09005E0E0FBA3E0FAA3E093
:106CD000F912E02D900B3174FFF0A37440F0A3740F
:106CE00057F09005E0E0FBA3E0FAA3E0F912E02DF5
:106CF00090064E74FFF0A37445F0A3746EF0900CF0
:106D0000F2E0A3E0A3E0FFA3E0900651CFF0A3EFF1
:106D1000F07B017A0579E512A4E7900B317401F05C
:106D2000A37405F0A374E5F09005E0E0FBA3E0FA9E
:106D3000A3E0F912E02D900B3174FFF0A37440F042
:106D4000A37457F09005E0E0FBA3E0FAA3E0F9128A
:106D5000E02D90064E74FFF0A37445F0A37494F0F8
:106D6000900CEAE0FCA3E0FDA3E0FEA3E0FF900BA3
:106D70006CE0F9F8128797900651EEF0A3EFF07BE4
:106D8000017A0579E512A4E7900B317401F0A37440
:106D900005F0A374E5F09005E0E0FBA3E0FAA3E0C2
:106DA000F912E02D900B3174FFF0A37440F0A3743E
:106DB00057F09005E0E0FBA3E0FAA3E0F912E02D24
:106DC00090064E74FFF0A37445F0A374A6F0900DE6
:106DD00091E0F8A3E0F9A3E0FAA3E0FB900E60E0F5
:106DE000FCA3E0FDA3E0FEA3E0C39BFFEE9AFEED53
:106DF00099FDEC98FC9006511287F87B017A057991
:106E0000E512A4E7900B317401F0A37405F0A374AC
:106E1000E5F09005E0E0FBA3E0FAA3E0F912E02D35
:106E2000900B3174FFF0A37440F0A37457F09005F9
:106E3000E0E0FBA3E0FAA3E0F912E02D22E4F5265E
:106E4000F525F524F523900B39E0FCA3E0FDA3E044
:106E5000FEA3E0F5428E418D408C3FA3E0FCA3E011
:106E6000FDA3E0FEA3E0F5468E458D448C43A3E0F0
:106E7000FCA3E0FDA3E0FEA3E0F54A8E498D488C1B
:106E800047A3E0FCA3E0FDA3E0FEA3E0F54E8E4D9A
:106E90008D4C8C4BA3E0FCA3E0FDA3E0FEA3E0F54A
:106EA000528E518D508C4FA3E0FCA3E0FDA3E0FE79
:106EB000A3E0F5568E558D548C53A3E0FCA3E0FD62
:106EC000A3E0FEA3E0F55A8E598D588C57A3E0FC41
:106ED000A3E0FDA3E0FEA3E0F55E8E5D8D5C8C5B20
:106EE000A3E0FCA3E0FDA3E0FEA3E0F5628E618DCC
:106EF000608C5F900BA0E0FEA3E0FFEE3395E0FD19
:106F0000FC780D1287ABAB5AAA59A958A85712E5BD
:106F1000608F668E658D648C63900B5DE0FCA3E0F2
:106F2000FDA3E0FEA3E0F56A8E698D688C67A3E09F
:106F3000FCA3E0FDA3E0FEA3E0F56E8E6D8D6C8CEE
:106F40006BA3E0FCA3E0FDA3E0FEA3E0F5728E716D
:106F50008D708C6F900BA2E0FEA3E0FFFBAA06E40D
:106F6000900E8CE0FCA3E0FDA3E0FEA3E0C39BF544
:106F70003AEE9AF539ED9400F538EC9400F5379037
:106F80000BA4E0FEA3E0FFFBAA06E4900E90E0FC59
:106F9000A3E0FDA3E0FEA3E0C39BF53EEE9AF53D22
:106FA000ED9400F53CEC9400F53B900B6AE024FE78
:106FB000700302711A147003027178147003027264
:106FC0006D1470030273D024046003027567900B84
:106FD000B0E06024A3E0FF3395E0FEFDFC900E7D61
:106FE000E0F8A3E0F9A3E0FAA3E0FB1286258F36D0
:106FF0008E358D348C338024900BB1E0FF3395E0D7
:10700000FEFDFC900E79E0F8A3E0F9A3E0FAA3E01E
:10701000FB1286258F368E358D348C33900C37E0FD
:10702000F8A3E0F9A3E0FAA3E0FBC3E5369BFFE594
:10703000359AFEE53499FDE53398FC900B98E0F81D
:10704000A3E0F9A3E0FAA3E0FBC312875D5044E498
:10705000FFFEFDFC900B98E0F8A3E0A3E0A3E0C3E3
:1070600012875D602E900C37E0FCA3E0FDA3E0FEEC
:10707000A3E0FF900B98E0F8A3E0A3E0A3E0EF2BE0
:10708000FFEE3AFEED39FDEC38FC900C371287F834
:10709000027567900C37E0F8A3E0F9A3E0FAA3E0EB
:1070A000FBC3E5369BFFE5359AFEE53499FDE533F4
:1070B00098FC900B9CE0F8A3E0F9A3E0FAA3E0FBB6
:1070C000D312875D4043E4FFFEFDFC900B9CE0F88B
:1070D000A3E0A3E0A3E012875D602E900C37E0FCF4
:1070E000A3E0FDA3E0FEA3E0FF900B9CE0F8A3E08B
:1070F000A3E0A3E0EF2BFFEE3AFEED39FDEC38FC08
:10710000900C371287F8027567AF36AE35AD34ACE8
:1071100033900C371287F8027567E4FFFEFDFCAB75
:107120003AAA39A938A837D312875D403D900CADF3
:10713000E0FCA3E0FDA3E0FEA3E0FFA83712862554
:10714000C006C007900BA2E0FEA3E0FFC3E49FFFD0
:1071500074049EFEAB07FAE4F9F8D007D00612E5F6
:1071600060900C371287F8027567E4FFFEFDFC9013
:107170000C371287F8027567900D99E0FCA3E0FDCB
:10718000A3E0FEA3E0FF900C371287F8E4FFFEFDBA
:10719000FCAB3AAA39A938A837D312875D4056907C
:1071A0000CCCE0FFE4FCFDFEA837128625E47B0250
:1071B000FAF9F8128625C006C007900BA2E0FEA3DC
:1071C000E0FFC3E49FFF74049EFEAB07FAE4F9F806
:1071D000D007D00612E560900D99E0F8A3E0F9A37E
:1071E000E0FAA3E02FFFEA3EFEE93DFDE83CFC901B
:1071F0000C371287F8E4FFFEFDFCAB3EAA3DA93C2C
:10720000A83BD312875D5003027567900CCCE0FF5A
:10721000E4FCFDFEA83B128625E47B02FAF9F81295
:107220008625C006C007900BA4E0FEA3E0FFC3E4E0
:107230009FFF74049EFEAB07FAE4F9F8D007D0066E
:1072400012E560A804A905AA06AB07900D99E0FC19
:10725000A3E0FDA3E0FEA3E0C39BFFEE9AFEED9941
:10726000FDEC98FC900C371287F8027567900D9929
:10727000E0FCA3E0FDA3E0FEA3E0FF900C37128743
:10728000F8900F46E014604814700302734A240219
:107290006003027567E4FFFEFDFCAB3AAA39A9382A
:1072A000A837D312875D4009900F467401F002752C
:1072B00067E4FFFEFDFCAB3EAA3DA93CA83BD31210
:1072C000875D5003027567900F467402F002756780
:1072D000E4FFFEFDFCAB3AAA39A938A837C31287F0
:1072E0005D5008E4900F46F0027567900CCCE0FF0B
:1072F000E4FCFDFEAB3AAA39A938A837128625E48A
:107300007B02FAF9F8128625C006C007900BA2E0AE
:10731000FEA3E0FFC3E49FFF74049EFEAB07FAE404
:10732000F9F8D007D00612E560900D99E0F8A3E0D7
:10733000F9A3E0FAA3E02FFFEA3EFEE93DFDE83CB9
:10734000FC900C371287F8027567E4FFFEFDFCAB7A
:107350003EAA3DA93CA83BC312875D5008E4900FAC
:1073600046F0027567900CCCE0FFE4FCFDFEAB3EFE
:10737000AA3DA93CA83B128625E47B02FAF9F81243
:107380008625C006C007900BA4E0FEA3E0FFC3E47F
:107390009FFF74049EFEAB07FAE4F9F8D007D0060D
:1073A00012E560A804A905AA06AB07900D99E0FCB8
:1073B000A3E0FDA3E0FEA3E0C39BFFEE9AFEED99E0
:1073C000FDEC98FC900C371287F802756702756720
:1073D000900D99E0FCA3E0FDA3E0FEA3E0FF900C7C
:1073E000371287F8900F46E0146048147003027457
:1073F000CC24026003027567E4FFFEFDFCAB3AAAF1
:1074000039A938A837D312875D4009900F46740117
:10741000F0027567E4FFFEFDFCAB3EAA3DA93CA867
:107420003BD312875D5003027567900F467402F0DC
:10743000027567E4FFFEFDFCAB3AAA39A938A8370C
:10744000C312875D501BE4FFFEFDFCAB3EAA3DA9C5
:107450003CA83BC312875D5008E4900F46F00275CC
:1074600067E4FFFEFDFCAB3AAA39A938A837D3126E
:10747000875D5003027567900CCCE0FFE4FCFDFED5
:10748000A83712862578021287ABC006C007900B7A
:10749000A2E0FEA3E0FFC3E49FFF74049EFEAB07DF
:1074A000FAE4F9F8D007D00612E560900D99E0F8FB
:1074B000A3E0F9A3E0FAA3E02FFFEA3EFEE93DFDD9
:1074C000E83CFC900C371287F8027567E4FFFEFD7C
:1074D000FCAB3AAA39A938A837C312875D501AE421
:1074E000FFFEFDFCAB3EAA3DA93CA83BC312875D55
:1074F0005007E4900F46F0806EE4FFFEFDFCAB3ECB
:10750000AA3DA93CA83BD312875D405B900BAFE03E
:10751000FFE4FCFDFEA83B12862578021287ABC073
:1075200006C007900BA4E0FEA3E0FFC3E49FFF7436
:10753000049EFEAB07FAE4F9F8D007D00612E56026
:10754000A804A905AA06AB07900D99E0FCA3E0FDED
:10755000A3E0FEA3E0C39BFFEE9AFEED99FDEC983D
:10756000FC900C371287F8900B87E0606AA3E0FC70
:10757000A3E0FDA3E0FEA3E0FF900C37E0F8A3E05A
:10758000F9A3E0FAA3E0FBC312875D5014900B88C7
:10759000E0FCA3E0FDA3E0FEA3E0FF900C37128720
:1075A000F8900B90E0FCA3E0FDA3E0FEA3E0FF90C9
:1075B0000C37E0F8A3E0F9A3E0FAA3E0FBD31287CD
:1075C0005D4014900B90E0FCA3E0FDA3E0FEA3E07F
:1075D000FF900C371287F8900BDDE0640160030226
:1075E0007690900EACE0B40114900E58E0FCA3E04D
:1075F000FDA3E0FEA3E0FF900C371287F8900D5436
:10760000E064016003027690FFFEFDFCAB3EAA3D04
:10761000A93CA83BD312875D405D900CEAE0FCA337
:10762000E0FDA3E0FEA3E0FFA83B128625C006C054
:1076300007900BA4E0FEA3E0FFC3E49FFF74049E49
:10764000FEAB07FAE4F9F8D007D00612E560A8040B
:10765000A905AA06AB07900CEAE0FCA3E0FDA3E0B5
:10766000FEA3E0C39BFFEE9AFEED99FDEC98FC9023
:107670000C371287F88019900CEAE0FCA3E0FDA318
:10768000E0FEA3E0FF900C371287F8E4900D54F071
:10769000900B6BE07003027AEB147003027EA5146A
:1076A0007003027C79146003027F13900E75E0F87A
:1076B000A3E0F9A3E0FAA3E0FB900C37E0FCA3E021
:1076C000FDA3E0FEA3E0C39BF52AEE9AF529ED9910
:1076D000F528EC98F527900F36E0FCA3E0FDA3E039
:1076E000FEA3E0252AFFEE3529FEED3528FDEC3519
:1076F00027FC900F361287F8AF66AE65AD64AC63B9
:10770000AB2AAA29A928A827D312875D400E85662F
:107710002A856529856428856327802CAF66AE6538
:10772000AD64AC6312874FAB2AAA29A928A827C346
:1077300012875D5013AF66AE65AD64AC6312874FC0
:107740008F2A8E298D288C277F807EF07DFA7C02FF
:10775000900F36E0F8A3E0F9A3E0FAA3E0FBD31220
:10776000875D40107F807EF07DFA7C02900F36129C
:1077700087F8802A7F807E0F7D057CFD900F36E0A4
:10778000F8A3E0F9A3E0FAA3E0FBC312875D500E73
:107790007F807E0F7D057CFD900F361287F8E4F523
:1077A00032F531F530F52FFFFEFDFCAB5AAA59A991
:1077B00058A857C312875D6026AF2AAE29AD28AC02
:1077C00027A857128625780D128797E5322FF532B4
:1077D000E5313EF531E5303DF530E52F3CF52FE460
:1077E000FFFEFDFCAB5EAA5DA95CA85BC312875DD2
:1077F000602C900F36E0FCA3E0FDA3E0FEA3E0FFC9
:10780000A85B128625780D128797E5322FF532E5B1
:10781000313EF531E5303DF530E52F3CF52FE4FF05
:10782000FEFDFCAB62AA61A960A85FC312875D6020
:1078300043900F3EE0F8A3E0F9A3E0FAA3E0FBC316
:10784000E52A9BFFE5299AFEE52899FDE52798FCA6
:10785000AB62AA61A960A85F128625780D1287978E
:10786000E5322FF532E5313EF531E5303DF530E5D5
:107870002F3CF52FAF2AAE29AD28AC27900F3E1232
:1078800087F8900C50E0FCA3E0FDA3E0FEA3E02508
:1078900032F532EE3531F531ED3530F530EC352F4E
:1078A000F52FE4FFFEFDFCAB32AA31A930A82FC3AF
:1078B00012875D4004D2118002C211900BA0E0FE3D
:1078C000A3E0FFEE3395E0FDFCAB32AA31A930A86E
:1078D0002FD312875D4016900BA0E0FEA3E0FFEED1
:1078E0003395E08F328E31F530F52F803C900BA030
:1078F000E0FEA3E0FFC3E49FFFE49EFE3395E0FDBE
:10790000FCAB32AA31A930A82FC312875D501A9060
:107910000BA0E0FEA3E0FFC3E49FFFE49EFE3395CF
:10792000E08F328E31F530F52F900E81E0F8A3E034
:10793000F9A3E0FAA3E0FBC3E5329BF52EE5319A0B
:10794000F52DE53099F52CE52F98F52B900F3AE0C1
:10795000FCA3E0FDA3E0FEA3E0252EFFEE352DFE07
:10796000ED352CFDEC352BFC900F3A1287F87FA0FB
:107970007E867D017C00900F3AE0F8A3E0F9A3E059
:10798000FAA3E0FBD312875D40107FA07E867D01C5
:107990007C00900F3A1287F8802A7F607E797DFE06
:1079A0007CFF900F3AE0F8A3E0F9A3E0FAA3E0FB34
:1079B000C312875D500E7F607E797DFE7CFF900F45
:1079C0003A1287F8E4F526F525F524F523FFFEFDA8
:1079D000FCAB6AAA69A968A867C312875D6026AF75
:1079E0002EAE2DAD2CAC2BA867128625780D1287F4
:1079F00097E5262FF526E5253EF525E5243DF524DA
:107A0000E5233CF523E4FFFEFDFCAB6EAA6DA96CFB
:107A1000A86BC312875D602C900F3AE0FCA3E0FDD9
:107A2000A3E0FEA3E0FFA86B128625780D128797CE
:107A3000E5262FF526E5253EF525E5243DF524E54B
:107A4000233CF523E4FFFEFDFCAB72AA71A970A8EC
:107A50006FC312875D6043900F42E0F8A3E0F9A383
:107A6000E0FAA3E0FBC3E52E9BFFE52D9AFEE52C93
:107A700099FDE52B98FCAB72AA71A970A86F1286CC
:107A800025780D128797E5262FF526E5253EF52565
:107A9000E5243DF524E5233CF52374FF7F9CFEFDA2
:107AA000FCAB26AA25A924A823C312875D500D7418
:107AB000FF75269CF525F524F523801EE47F64FEE2
:107AC000FDFCAB26AA25A924A823D312875D400A72
:107AD000E4752664F525F524F523AF2EAE2DAD2CE7
:107AE000AC2B900F421287F8027F13900E75E0F8CE
:107AF000A3E0F9A3E0FAA3E0FB900C37E0FCA3E0DD
:107B0000FDA3E0FEA3E0C39BF52AEE9AF529ED99CB
:107B1000F528EC98F527900F36E0FCA3E0FDA3E0F4
:107B2000FEA3E0252AFFEE3529FEED3528FDEC35D4
:107B300027FC900F361287F8E47FE87E03FDFC9067
:107B40000F36E0F8A3E0F9A3E0FAA3E0FBD3128735
:107B50005D400FE47FE87E03FDFC900F361287F84E
:107B6000802A7F187EFC7DFF7CFF900F36E0F8A313
:107B7000E0F9A3E0FAA3E0FBC312875D500E7F1883
:107B80007EFC7DFF7CFF900F361287F8E4FFFEFD40
:107B9000FCAB42AA41A940A83FC312875D601AAF5F
:107BA0002AAE29AD28AC27A83F1286257810128767
:107BB000978F268E258D248C23E4FFFEFDFCAB469B
:107BC000AA45A944A843C312875D602C900F36E0F4
:107BD000FCA3E0FDA3E0FEA3E0FFA8431286257806
:107BE00010128797E5262FF526E5253EF525E52495
:107BF0003DF524E5233CF523E4FFFEFDFCAB4AAA5A
:107C000049A948A847C312875D6043900F3EE0F83A
:107C1000A3E0F9A3E0FAA3E0FBC3E52A9BFFE52973
:107C20009AFEE52899FDE52798FCAB4AAA49A948A0
:107C3000A8471286257810128797E5262FF526E5A6
:107C4000253EF525E5243DF524E5233CF523AF2A23
:107C5000AE29AD28AC27900F3E1287F8E4FFFEFD59
:107C6000FCAB26AA25A924A823D312875D4005D200
:107C700011027F13C211027F13900C4FE0700302B8
:107C80007F13201003027F13900C3FE0FCA3E0FD64
:107C9000A3E0FEA3E0F5328E318D308C2F900BA047
:107CA000E0FEA3E0FFEE3395E0FDFCAB32AA31A984
:107CB00030A82FD312875D4016900BA0E0FEA3E002
:107CC000FFEE3395E08F328E31F530F52F803C900A
:107CD0000BA0E0FEA3E0FFC3E49FFFE49EFE33950C
:107CE000E0FDFCAB32AA31A930A82FC312875D504A
:107CF0001A900BA0E0FEA3E0FFC3E49FFFE49EFE0A
:107D00003395E08F328E31F530F52F900E81E0F80B
:107D1000A3E0F9A3E0FAA3E0FBC3E5329BF52EE56F
:107D2000319AF52DE53099F52CE52F98F52B900F2C
:107D30003AE0FCA3E0FDA3E0FEA3E0252EFFEE3534
:107D40002DFEED352CFDEC352BFC900F3A1287F80B
:107D50007FA07E867D017C00900F3AE0F8A3E0F9D9
:107D6000A3E0FAA3E0FBD312875D40107FA07E86DC
:107D70007D017C00900F3A1287F8802A7F607E791F
:107D80007DFE7CFF900F3AE0F8A3E0F9A3E0FAA3B0
:107D9000E0FBC312875D500E7F607E797DFE7CFF25
:107DA000900F3A1287F8E4F526F525F524F523FF20
:107DB000FEFDFCAB4EAA4DA94CA84BC312875D60DB
:107DC00026AF2EAE2DAD2CAC2BA84B1286257810ED
:107DD000128797E5262FF526E5253EF525E5243D76
:107DE000F524E5233CF523E4FFFEFDFCAB52AA514C
:107DF000A950A84FC312875D602C900F3AE0FCA3F6
:107E0000E0FDA3E0FEA3E0FFA84F12862578101244
:107E10008797E5262FF526E5253EF525E5243DF552
:107E200024E5233CF523E4FFFEFDFCAB56AA55A94F
:107E300054A853C312875D6043900F42E0F8A3E05B
:107E4000F9A3E0FAA3E0FBC3E52E9BFFE52D9AFE24
:107E5000E52C99FDE52B98FCAB56AA55A954A853DF
:107E60001286257810128797E5262FF526E5253E00
:107E7000F525E5243DF524E5233CF523AF2EAE2D75
:107E8000AD2CAC2B900F421287F8E4FFFEFDFCAB4B
:107E900026AA25A924A823C312875D4004D21180F5
:107EA00072C211806E900C47E0FCA3E0FDA3E0FEDF
:107EB000A3E0F5268E258D248C23E4FFFEFDFCAB8C
:107EC00026AA25A924A823D312875D4004D21180B5
:107ED00002C21174FF7F9CFEFDFCAB26AA25A924DB
:107EE000A823C312875D500D74FF75269CF525F5F8
:107EF00024F523801EE47F64FEFDFCAB26AA25A9A1
:107F000024A823D312875D400AE4752664F525F57D
:107F100024F523E47F64FEFDFCAB26AA25A924A852
:107F200023D312875D400AE4752664F525F524F510
:107F30002374FF7F9CFEFDFCAB26AA25A924A82361
:107F4000C312875D500B74FF75269CF525F524F54B
:107F500023900B6BE064016037AF26AE25AD24ACF7
:107F600023780A1287ABE47B64FAF9F812E560A87B
:107F700004A905AA06AB07900EADE0FFE4FCFDFEE8
:107F8000128625780A1287978F268E258D248C23BA
:107F9000E4FFFEFDFCAB26AA25A924A823C3128773
:107FA0005D40047F0180027FFF900E70EFF0301182
:107FB000077F0112F25A8005E4FF12F25AAE25AF94
:107FC0002612F10412F24222028389E86480F8E961
:107FD00033E83360110460F0ED33EC337009E8FCF2
:107FE000E9FDEAFEEBFF220460DED3EB9FEA9EE9A7
:107FF0009DE8C2E78CF0C2F795F0400CE8CCF8E9B8
:10800000CDF9EACEFAEBCFFB12835485D0F05804B9
:10801000700320D5B3E80470075002B2D5028393F1
:1080200092D5EC0460F7E4CCC0E0C398F8603B94D0
:10803000186008400DD0E0FB02836BE4FBFAC9FC3A
:108040008028E830E406E4C9FBE4CAFCE830E30534
:10805000E4C9CACBFCE854076010F8C3E913F9EA95
:1080600013FAEB13FBEC13FCD8F130F52FC3E49CAF
:10807000FCEF9BFFEE9AFEED99FDD0E0FBEF4E4D3D
:108080004C701222DB03028390EC2CFCEF33FFEEEA
:1080900033FEED33FDED30E7EB02836BEF2BFFEEAC
:1080A0003AFEED39FDD0E0FB50130BBB0003028319
:1080B00093ED13FDEE13FEEF13FFEC13FC02836B45
:1080C000EC4D6011E8497017ED33EC3304600DE4BA
:1080D000FCFFFEFD22E933E8330470F802838912C5
:1080E000835458046009E4CC2481500628500902C6
:1080F0008393284003028390C0E0EB4A7044B98028
:1081000006D0E0FB02837FEF4E701CBD8008EBFFC2
:10811000EAFEE9FD80EBE98DF0A4FEE5F00281A91D
:10812000E9CDF9EAFEEBFFEF89F0A4FCE5F0CE899A
:10813000F0A42EFFE435F0CD89F0A42DFEE435F057
:108140008067EF4E7005BD80D780C3EF8BF0A4AC85
:10815000F0EE8BF0A42CFCE435F0F8EF8AF0A42CC0
:10816000E5F038FCE433CB8DF0A42CFCE5F03BF8D3
:10817000EE8AF0A42CFCE5F038F8E433CF89F0A4C3
:108180002CFCE5F038CF3400CE89F0A42FFFE5F0C9
:108190003EFEE433C98DF0A42EFEE5F039CD8AF021
:1081A000A42FFFE5F03EFEE43DFD33D0E0FB500799
:1081B0000BBB000F028393EC2CFCEF33FFEE33FE7E
:1081C000ED33FD02836B028393EC5D046005E85997
:1081D000047003028389128354580460F6EC4860EB
:1081E000F2EC7004FDFEFF22C860DB2481C8500958
:1081F000C398600250060283909850CAF582E9291C
:108200004B4A7005AB8202837F75F0007C1A788040
:10821000C3EF9BEE9AED99400DC3EF9BFFEE9AFEE4
:10822000ED99FDE842F0DC23ACF0D0E0FFD0E0FEB9
:10823000D0E0FDAB8220E7101BEB60BAEC2CFCEF2A
:1082400033FFEE33FEED33FD02836BE803F830E7D6
:1082500005C0F075F000EF2FFFEE33FEED33FD406B
:10826000B830E7C280AA74F8CC6480CCC86480C8F7
:10827000F58204604FC3EB9FF5F0EA9E42F0E99D62
:1082800042F0E89C45F0603C501DE5825FFFE582CE
:10829000D313CB5BCBF42B5582FB50280ABA0024B6
:1082A00009B9002008801DE5825BFBE582D313CF6E
:1082B0005FCFF4C3132F5582FF50090EBE00050D8A
:1082C000BD00010CC3EB9FF5F0EA9E42F0E99D4230
:1082D000F0E89C45F06007CC4820E701B3EC22753C
:1082E000F020800E75F010800575F0087D007E008E
:1082F0007F003392D530D50312874FEC334010EF17
:1083000033FFEE33FEED33FDEC33FCD5F0ED22E52B
:10831000F0247EA2D513CC92E7CDCEFF22EDD2E79A
:10832000CD33EC3392D524814006E4FFFEFDFC22E0
:10833000FCE4CFCECDCC24E0501174FF80EDC3CC53
:1083400013CCCD13CDCE13CECF13CF0470F030D5D8
:10835000DE02874FE9D2E7C933E833F892D5EDD290
:10836000E7CD33EC33FC5002B2D522EC30E7100FEE
:10837000BF000C0EBE00080DBD00040BEB6014A284
:10838000D5EB13FCED92E7FD2274FFFCFDFEFF220E
:10839000E480F8A2D574FF13FC7D80E480EFF9201F
:1083A000E73624F950037907E4F42402FBE582154B
:1083B0008270021583DBF6E024FB501BE96014E4B5
:1083C000F0E582158270021583E004F0B40A08E437
:1083D000F0D9EE7401F00A22C2D522ED33EC3392CB
:1083E000D5FA602AB4FF33EDC2E77BFF60067A84DA
:1083F0007900E4227A84790920D5047A84790422E8
:108400004E614E002B494E46002D494E4600E47AFF
:1084100008F0A3DAFC7B00740722C083C082ECC0A2
:10842000E0EDC0E0EEC0E0EFC0E0EA75F010A4CAF5
:10843000ABF075F04DA42BFBE435F0FCEA2410FA08
:10844000EB34C5FBEC34D9FCEDC2E7FF75F056A464
:10845000F42411C5F0F434C58FF0A42AE5F03BE410
:108460003CF020E714128510D0E0FFD0E0FED0E011
:10847000FDD0E0FC1281C98014F404128510D0E014
:10848000FFD0E0FED0E0FDD0E0FC1280C0D082D072
:1084900083E0FAEDD2E7CD33EC332482FBE4C3CFA3
:1084A00033CFCE33CECD33CD33DBF37B0775F00A3C
:1084B000846004F0A31B0AE5F0F0A38FF0740AA413
:1084C000FFACF08EF0740AA42CFEACF050010C8DC1
:1084D000F0740AA42CFDE435F0F0A3DBDE7407226F
:1084E0003F8000004120000042C80000447A0000A4
:1084F000461C400047C35000497424004B18968026
:108500004CBEBC205A0E1BCA6753C21C749DC5AE1C
:10851000FB60065407601C232312853EEB54386031
:108520000912852A1285391280C0ECF8EDF9EEFAAD
:10853000EFCB22EB12853980F1543803241C908450
:10854000E0FE93FC0EEE93FD0EEE930ECE93FF2213
:10855000BB010689828A83E0225002E722BBFE0229
:10856000E32289828A83E49322BB010CE58229F508
:1085700082E5833AF583E0225006E92582F8E62277
:10858000BBFE06E92582F8E222E58229F582E58331
:108590003AF583E49322BB010689828A83F0225054
:1085A00002F722BBFE01F322EF8DF0A4A8F0CF8CDE
:1085B000F0A428CE8DF0A42EFE22C2D5EC30E7091F
:1085C000B2D5E4C39DFDE49CFCEE30E715B2D5E4E2
:1085D000C39FFFE49EFE128A52C3E49DFDE49CFC0F
:1085E0008003128A5230D507C3E49FFFE49EFE2227
:1085F000C5F0F8A3E028F0C5F0F8E5821582700216
:108600001583E038F022BB010A89828A83F0E5F005
:10861000A3F0225006F709A7F01922BBFE06F3E5E6
:10862000F009F31922E88FF0A4CC8BF0A42CFCE91C
:108630008EF0A42CFC8AF0EDA42CFCEA8EF0A4CDE4
:10864000A8F08BF0A42DCC3825F0FDE98FF0A42CF8
:10865000CD35F0FCEB8EF0A4FEA9F0EB8FF0A4CFAB
:10866000C5F02ECD39FEE43CFCEAA42DCE35F0FD5C
:10867000E43CFC2275F008758200EF2FFFEE33FE1C
:10868000CD33CDCC33CCC58233C5829BED9AEC99EA
:10869000E58298400CF582EE9BFEED9AFDEC99FC8C
:1086A0000FD5F0D6E4CEFBE4CDFAE4CCF9A88222D3
:1086B000B800C1B90059BA002DEC8BF084CFCECDF3
:1086C000FCE5F0CBF97818EF2FFFEE33FEED33FD2C
:1086D000EC33FCEB33FB10D703994004EB99FB0F11
:1086E000D8E5E4F9FA227818EF2FFFEE33FEED33E8
:1086F000FDEC33FCC933C910D7059BE99A4007EC60
:108700009BFCE99AF90FD8E0E4C9FAE4CCFB2275A6
:10871000F010EF2FFFEE33FEED33FDCC33CCC8333A
:10872000C810D7079BEC9AE899400AED9BFDEC9A9C
:10873000FCE899F80FD5F0DAE4CDFBE4CCFAE4C814
:10874000F922CFF4CFCEF4CECDF4CDCCF4CC22C3ED
:10875000E49FFFE49EFEE49DFDE49CFC22EB9FF57C
:10876000F0EA9E42F0E99D42F0EC6480C864809893
:1087700045F022EB9FF5F0EA9E42F0E99D42F0E8D9
:108780009C45F022E8600FECC313FCED13FDEE13E3
:10879000FEEF13FFD8F122E86010ECA2E713FCED26
:1087A00013FDEE13FEEF13FFD8F022E8600FEFC3C6
:1087B00033FFEE33FEED33FDEC33FCD8F122BB0189
:1087C0000789828A83028AC95005E9F8028ABDBBFB
:1087D000FE05E9F8028AD589828A83028AE1BB0113
:1087E0000789828A830287F85005E9F8028AF1BB7B
:1087F000FE05E9F8028AFD22ECF0A3EDF0A3EEF00D
:10880000A3EFF022F8E0FBA3A3E0F925F0F0E58266
:10881000158270021583E0FA38F022EBF0A3EAF03B
:10882000A3E9F022D083D082F8E49370127401930C
:10883000700DA3A393F8740193F5828883E4737495
:1088400002936860EFA3A3A380DFE5122582F5827F
:10885000E5113583F583B511048582122210AF0628
:10886000858212F51122858212F511D2AF22EC8E8B
:10887000F0A4CCC5F0CCCDF8EFA4CEC5F02DFDE42E
:108880003CFCE8A42EC8C5F03DFDE43CFCEFA4FF91
:10889000E5F028FEE43DFDE43CFC22E709F608DFB4
:1088A000FA8046E709F208DFFA803E88828C83E787
:1088B00009F0A3DFFA8032E309F608DFFA806EE3FD
:1088C00009F208DFFA806688828C83E309F0A3DF6F
:1088D000FA805A89828A83E0A3F608DFFA804E89FB
:1088E000828A83E0A3F208DFFA804280D280FA8095
:1088F000C680D4805580F28029801080A680EA80CE
:108900009A80A880DA80E280CA802988848C858950
:10891000828A83E493A30586F0A30586DFF5DEF360
:10892000800B89828A83E493A3F608DFF9ECFAA925
:10893000F0EDFB2288848C8589828A83E0A30586FA
:10894000F0A30586DFF6DEF480E389828A83E49370
:10895000A3F208DFF980D688F0EF60010E4E60CDFB
:1089600088F0ED2402B4040050C3F582EB2402B475
:10897000040050B923234582239088EB73E709F65E
:108980000870FA8046E709F20870FA803E88828C07
:1089900083E709F0A370FA8074E309F60870FA809F
:1089A0006CE309F20870FA806488828C83E309F032
:1089B000A370FA805889828A83E0A3F60870FA804F
:1089C0004C89828A83E0A3F20870FA804080D280CA
:1089D000FA80C680D4805180F28027801080A680E3
:1089E000EA809A80A880DA80E280CA802788848C16
:1089F0008589828A83E493A30586F0A3058670F5B2
:108A0000800B89828A83E493A3F60870F9ECFAA9B3
:108A1000F0EDFB2288848C8589828A83E0A3058619
:108A2000F0A3058670F680E589828A83E493A3F239
:108A30000870F980D888F0ED2402B4040050CEF517
:108A400082EB2402B4040050C4232345822390897E
:108A5000CD73BC000BBE0029EF8DF084FFADF0227A
:108A6000E4CCF875F008EF2FFFEE33FEEC33FCEEAC
:108A70009DEC984005FCEE9DFE0FD5F0E9E4CEFD9F
:108A800022EDF8F5F0EE8420D21CFEADF075F00872
:108A9000EF2FFFED33FD4007985006D5F0F222C3CB
:108AA00098FD0FD5F0EA22A3F8E0C5F025F0F0E537
:108AB00082158270021583E0C838F0E822E6FC08CF
:108AC000E6FD08E6FE08E6FF22E0FCA3E0FDA3E0E9
:108AD000FEA3E0FF22E2FC08E2FD08E2FE08E2FF5E
:108AE00022E493FC740193FD740293FE740393FFDC
:108AF00022ECF608EDF608EEF608EFF622ECF208A6
:108B0000EDF208EEF208EFF22212F2C6EF700A3030
:108B10000FF7C20F12C79F80F0900E69E0249AFFF2
:108B2000900E68E034F9FE3395E0FDFCE47BA07A1A
:108B300007F9F81286257807128797900D95128706
:108B4000F8300F05C20F12C79F900F7FE07003022D
:108B50008BD9201003028BD9900F85E004F07006AA
:108B6000900F84E004F0900F84E064037004A3E0AD
:108B700064E870657F287E23FDFC900D95E0F8A3E6
:108B8000E0F9A3E0FAA3E0FBC312875D500FE47F96
:108B9000407E1FFDFC900F801287F88037E47FC86D
:108BA0007E32FDFC900D95E0F8A3E0F9A3E0FAA376
:108BB000E0FBC312875D500FE47FE07E2EFDFC904A
:108BC0000F801287F8800DE47FC07E5DFDFC900F62
:108BD000801287F8E4900F7FF0E47F587E1BFDFC45
:108BE000900D95E0F8A3E0F9A3E0FAA3E0FBD3121F
:108BF000875D5003029211E47FE87E03FDFC900F35
:108C000086E0F8A3E0F9A3E0FAA3E0FB1287737013
:108C100004D2108036900F86E0FCA3E0FDA3E0FEB6
:108C2000A3E02401FFE43EFEE43DFDE43CFC900FA4
:108C3000861287F8900D95E0FCA3E0FDA3E0FEA36B
:108C4000E0FF12DBAE900E711287F8900CCFE0605F
:108C50000312D50F900E6BE0249AFF900E6AE03459
:108C6000F9FE3395E0FDFCE47BAB7A64F9F81286FB
:108C700025780D128797900E70E0FD3395E0FC1279
:108C800085A8EE3395E0FDFC12D93D900E81128748
:108C9000F8900E75E0FCA3E0FDA3E0FEA3E0FF90DA
:108CA0000C89E0F9F8128797C004C005C006C00718
:108CB000900E94E0FCA3E0FDA3E0FEA3E0FF900C87
:108CC00089E0F81287979000061287F8900C37E039
:108CD000FCA3E0FDA3E0FEA3E0FFA80112879790AC
:108CE000000A1287F8D007D006D005D00412AD6A6A
:108CF000A804A905AA06AB07900E81E0FCA3E0FD3D
:108D0000A3E0FEA3E0C39BFFEE9AFEED99FDEC9875
:108D1000FC12DB31EE3395E0FDFC900E851287F8F6
:108D2000300F05C20F12C79F900CC3E07004F50FFF
:108D3000F510E50F147003028E1A147003028E31C1
:108D4000147003028E6E24036003028F44900CF9AA
:108D5000E025E0246CF582E4340EF583E0FEA3E028
:108D6000FFEE3395E08F268E25F524F523E4FFFEF4
:108D7000FDFCAB26AA25A924A823C312875D5009B0
:108D8000E4F526F525F524F523AF26AE25AD24AC74
:108D90002312CFE98F268E258D248C23780A128703
:108DA000AB900CC4E0F8A3E0F9A3E0FAA3E0FB1257
:108DB00086B08F268E258D248C23300F05C20F128E
:108DC000C79FE4FFFEFDFCAB26AA25A924A823C368
:108DD00012875D500BE4F526F525F524F523801E5A
